{
  "contractName": "CharityChain",
  "abi": [
    {
      "inputs": [
        {
          "internalType": "address",
          "name": "_admin",
          "type": "address"
        },
        {
          "internalType": "string",
          "name": "_uen",
          "type": "string"
        }
      ],
      "payable": false,
      "stateMutability": "nonpayable",
      "type": "constructor"
    },
    {
      "constant": true,
      "inputs": [],
      "name": "uen",
      "outputs": [
        {
          "internalType": "string",
          "name": "",
          "type": "string"
        }
      ],
      "payable": false,
      "stateMutability": "view",
      "type": "function"
    },
    {
      "constant": false,
      "inputs": [
        {
          "internalType": "address",
          "name": "owner",
          "type": "address"
        }
      ],
      "name": "addOwner",
      "outputs": [],
      "payable": false,
      "stateMutability": "nonpayable",
      "type": "function"
    },
    {
      "constant": true,
      "inputs": [
        {
          "internalType": "address",
          "name": "owner",
          "type": "address"
        }
      ],
      "name": "checkOwner",
      "outputs": [
        {
          "internalType": "bool",
          "name": "",
          "type": "bool"
        }
      ],
      "payable": false,
      "stateMutability": "view",
      "type": "function"
    },
    {
      "constant": false,
      "inputs": [
        {
          "internalType": "address",
          "name": "owner",
          "type": "address"
        }
      ],
      "name": "removeOwner",
      "outputs": [],
      "payable": false,
      "stateMutability": "nonpayable",
      "type": "function"
    },
    {
      "constant": false,
      "inputs": [
        {
          "internalType": "bytes32",
          "name": "nricHash",
          "type": "bytes32"
        },
        {
          "internalType": "uint256",
          "name": "amount",
          "type": "uint256"
        },
        {
          "internalType": "uint256",
          "name": "date",
          "type": "uint256"
        },
        {
          "internalType": "string",
          "name": "message",
          "type": "string"
        }
      ],
      "name": "addDonation",
      "outputs": [],
      "payable": false,
      "stateMutability": "nonpayable",
      "type": "function"
    },
    {
      "constant": true,
      "inputs": [
        {
          "internalType": "bytes32",
          "name": "nricHash",
          "type": "bytes32"
        }
      ],
      "name": "getDonationCount",
      "outputs": [
        {
          "internalType": "uint256",
          "name": "",
          "type": "uint256"
        }
      ],
      "payable": false,
      "stateMutability": "view",
      "type": "function"
    },
    {
      "constant": true,
      "inputs": [
        {
          "internalType": "bytes32",
          "name": "nricHash",
          "type": "bytes32"
        },
        {
          "internalType": "uint256",
          "name": "index",
          "type": "uint256"
        }
      ],
      "name": "getDonation",
      "outputs": [
        {
          "internalType": "uint256",
          "name": "",
          "type": "uint256"
        },
        {
          "internalType": "uint256",
          "name": "",
          "type": "uint256"
        },
        {
          "internalType": "string",
          "name": "",
          "type": "string"
        }
      ],
      "payable": false,
      "stateMutability": "view",
      "type": "function"
    },
    {
      "constant": true,
      "inputs": [],
      "name": "getDonors",
      "outputs": [
        {
          "internalType": "bytes32[]",
          "name": "",
          "type": "bytes32[]"
        }
      ],
      "payable": false,
      "stateMutability": "view",
      "type": "function"
    }
  ],
  "bytecode": "0x608060405234801561001057600080fd5b5060405162000df538038062000df58339818101604052604081101561003557600080fd5b81019080805190602001909291908051604051939291908464010000000082111561005f57600080fd5b8382019150602082018581111561007557600080fd5b825186600182028301116401000000008211171561009257600080fd5b8083526020830192505050908051906020019080838360005b838110156100c65780820151818401526020810190506100ab565b50505050905090810190601f1680156100f35780820380516001836020036101000a031916815260200191505b50604052505050816000806101000a81548173ffffffffffffffffffffffffffffffffffffffff021916908373ffffffffffffffffffffffffffffffffffffffff16021790555080600190805190602001906101509291906101b0565b506001600360008473ffffffffffffffffffffffffffffffffffffffff1673ffffffffffffffffffffffffffffffffffffffff16815260200190815260200160002060006101000a81548160ff0219169083151502179055505050610255565b828054600181600116156101000203166002900490600052602060002090601f016020900481019282601f106101f157805160ff191683800117855561021f565b8280016001018555821561021f579182015b8281111561021e578251825591602001919060010190610203565b5b50905061022c9190610230565b5090565b61025291905b8082111561024e576000816000905550600101610236565b5090565b90565b610b9080620002656000396000f3fe608060405234801561001057600080fd5b50600436106100885760003560e01c806396f300d41161005b57806396f300d414610271578063c1c40ec4146102d0578063e0e3671c1461038f578063ee535946146103eb57610088565b8063173825d91461008d5780632d7cb52a146100d15780635c4766c7146101545780637065cb481461022d575b600080fd5b6100cf600480360360208110156100a357600080fd5b81019080803573ffffffffffffffffffffffffffffffffffffffff16906020019092919050505061042d565b005b6100d961052d565b6040518080602001828103825283818151815260200191508051906020019080838360005b838110156101195780820151818401526020810190506100fe565b50505050905090810190601f1680156101465780820380516001836020036101000a031916815260200191505b509250505060405180910390f35b61022b6004803603608081101561016a57600080fd5b81019080803590602001909291908035906020019092919080359060200190929190803590602001906401000000008111156101a557600080fd5b8201836020820111156101b757600080fd5b803590602001918460018302840111640100000000831117156101d957600080fd5b91908080601f016020809104026020016040519081016040528093929190818152602001838380828437600081840152601f19601f8201169050808301925050505050505091929192905050506105cb565b005b61026f6004803603602081101561024357600080fd5b81019080803573ffffffffffffffffffffffffffffffffffffffff16906020019092919050505061076f565b005b61027961086f565b6040518080602001828103825283818151815260200191508051906020019060200280838360005b838110156102bc5780820151818401526020810190506102a1565b505050509050019250505060405180910390f35b610306600480360360408110156102e657600080fd5b8101908080359060200190929190803590602001909291905050506108c7565b6040518084815260200183815260200180602001828103825283818151815260200191508051906020019080838360005b83811015610352578082015181840152602081019050610337565b50505050905090810190601f16801561037f5780820380516001836020036101000a031916815260200191505b5094505050505060405180910390f35b6103d1600480360360208110156103a557600080fd5b81019080803573ffffffffffffffffffffffffffffffffffffffff1690602001909291905050506109db565b604051808215151515815260200191505060405180910390f35b6104176004803603602081101561040157600080fd5b8101908080359060200190929190505050610a31565b6040518082815260200191505060405180910390f35b6000809054906101000a900473ffffffffffffffffffffffffffffffffffffffff1673ffffffffffffffffffffffffffffffffffffffff163373ffffffffffffffffffffffffffffffffffffffff16146104d2576040517f08c379a0000000000000000000000000000000000000000000000000000000008152600401808060200182810382526023815260200180610b156023913960400191505060405180910390fd5b6000600360008373ffffffffffffffffffffffffffffffffffffffff1673ffffffffffffffffffffffffffffffffffffffff16815260200190815260200160002060006101000a81548160ff02191690831515021790555050565b60018054600181600116156101000203166002900480601f0160208091040260200160405190810160405280929190818152602001828054600181600116156101000203166002900480156105c35780601f10610598576101008083540402835291602001916105c3565b820191906000526020600020905b8154815290600101906020018083116105a657829003601f168201915b505050505081565b600360003373ffffffffffffffffffffffffffffffffffffffff1673ffffffffffffffffffffffffffffffffffffffff16815260200190815260200160002060009054906101000a900460ff1661066d576040517f08c379a0000000000000000000000000000000000000000000000000000000008152600401808060200182810382526024815260200180610b386024913960400191505060405180910390fd5b610675610a4e565b604051806060016040528085815260200184815260200183815250905060006004600087815260200190815260200160002054905081600560008881526020019081526020016000206000838152602001908152602001600020600082015181600001556020820151816001015560408201518160020190805190602001906106ff929190610a6f565b5090505060006004600088815260200190815260200160002054141561074c5760028690806001815401808255809150509060018203906000526020600020016000909192909190915055505b600181016004600088815260200190815260200160002081905550505050505050565b6000809054906101000a900473ffffffffffffffffffffffffffffffffffffffff1673ffffffffffffffffffffffffffffffffffffffff163373ffffffffffffffffffffffffffffffffffffffff1614610814576040517f08c379a0000000000000000000000000000000000000000000000000000000008152600401808060200182810382526023815260200180610b156023913960400191505060405180910390fd5b6001600360008373ffffffffffffffffffffffffffffffffffffffff1673ffffffffffffffffffffffffffffffffffffffff16815260200190815260200160002060006101000a81548160ff02191690831515021790555050565b606060028054806020026020016040519081016040528092919081815260200182805480156108bd57602002820191906000526020600020905b8154815260200190600101908083116108a9575b5050505050905090565b60008060606108d4610a4e565b6005600087815260200190815260200160002060008681526020019081526020016000206040518060600160405290816000820154815260200160018201548152602001600282018054600181600116156101000203166002900480601f0160208091040260200160405190810160405280929190818152602001828054600181600116156101000203166002900480156109b05780601f10610985576101008083540402835291602001916109b0565b820191906000526020600020905b81548152906001019060200180831161099357829003601f168201915b5050505050815250509050806000015181602001518260400151809050935093509350509250925092565b6000600360008373ffffffffffffffffffffffffffffffffffffffff1673ffffffffffffffffffffffffffffffffffffffff16815260200190815260200160002060009054906101000a900460ff169050919050565b600060046000838152602001908152602001600020549050919050565b60405180606001604052806000815260200160008152602001606081525090565b828054600181600116156101000203166002900490600052602060002090601f016020900481019282601f10610ab057805160ff1916838001178555610ade565b82800160010185558215610ade579182015b82811115610add578251825591602001919060010190610ac2565b5b509050610aeb9190610aef565b5090565b610b1191905b80821115610b0d576000816000905550600101610af5565b5090565b9056fe4f6e6c792061646d696e2063616e2061636365737320746869732066756e6374696f6e4f6e6c79206f776e6572732063616e2061636365737320746869732066756e6374696f6ea265627a7a72315820abff99ff5d71b22295bb46e219b69cb0f9f874e45e8e073f1dd8e64c3e3d2a7364736f6c63430005100032",
  "source": "pragma solidity >=0.5.16 <0.8.0;\r\n\r\n\r\ncontract CharityChain {\r\n    address admin;  // Charity's admin\r\n    string public uen; // Charity's UEN\r\n    bytes32[] donors; //Charity donors;\r\n    // uint constant MAX_LENGTH = 50; // max number of transactions returned for a search by donor\r\n\r\n    struct Donation {\r\n      uint amount; // Amount in cents\r\n      uint date; // DDMMYYYY format\r\n      string message; // Any message\r\n    }\r\n\r\n    // Table of all owners\r\n    mapping(address => bool) owners;\r\n\r\n    // Maps each donor's nricHashes with the total donation counts \r\n    mapping(bytes32 => uint256) donationCounts;\r\n\r\n    // Maps each donor's nricHashes with the table of donations\r\n    mapping(bytes32 => mapping(uint256 => Donation)) donations;\r\n    \r\n\r\n    constructor(address _admin, string memory _uen) public {\r\n        admin = _admin;\r\n        uen = _uen;\r\n        owners[_admin] = true;\r\n\r\n    }\r\n\r\n    modifier isAdmin {\r\n      require(msg.sender == admin, 'Only admin can access this function');\r\n      _;\r\n    }\r\n    \r\n    modifier isOwners {\r\n    require(owners[msg.sender], 'Only owners can access this function');\r\n      _;\r\n    }\r\n\r\n    function addOwner(address owner) public isAdmin {\r\n      owners[owner] = true;\r\n    }\r\n\r\n    function checkOwner(address owner) public view returns (bool) {\r\n      return owners[owner];\r\n    } \r\n\r\n    function removeOwner(address owner) public isAdmin {\r\n      owners[owner] = false;\r\n    }\r\n\r\n    function addDonation(bytes32 nricHash, uint amount, uint date, string memory message) public isOwners {\r\n      Donation memory newDonation = Donation(amount, date, message);\r\n      uint size = donationCounts[nricHash];\r\n      donations[nricHash][size] = newDonation;\r\n      if (donationCounts[nricHash] == 0) {\r\n        donors.push(nricHash);\r\n      }\r\n      donationCounts[nricHash] = size + 1;\r\n    }\r\n\r\n    function getDonationCount(bytes32 nricHash) public view returns (uint) {\r\n      return donationCounts[nricHash];\r\n    }\r\n\r\n    function getDonation(bytes32 nricHash, uint index) public view returns (uint, uint, string memory) {\r\n      Donation memory donation = donations[nricHash][index];\r\n      return (donation.amount, donation.date, donation.message);\r\n    }\r\n\r\n    function getDonors() public view returns (bytes32[] memory) {\r\n      return donors;\r\n    }\r\n}\r\n\r\n",
  "sourcePath": "C:\\Users\\admin\\Desktop\\Projects\\Blockchain_Charity\\ethr-contracts\\contracts\\CharityChain.sol",
  "compiler": {
    "name": "solc",
    "version": "0.5.16+commit.9c3226ce.Emscripten.clang"
  },
  "schemaVersion": "3.3.3",
  "updatedAt": "2020-12-27T16:20:43.448Z",
  "networkType": "ethereum",
  "devdoc": {
    "methods": {}
  },
  "userdoc": {
    "methods": {}
  }
}