{
  "contractName": "Onboarding",
  "abi": [
    {
      "inputs": [
        {
          "internalType": "address",
          "name": "_admin",
          "type": "address"
        }
      ],
      "payable": false,
      "stateMutability": "nonpayable",
      "type": "constructor"
    },
    {
      "constant": false,
      "inputs": [
        {
          "internalType": "address",
          "name": "charityAdmin",
          "type": "address"
        },
        {
          "internalType": "string",
          "name": "UEN",
          "type": "string"
        }
      ],
      "name": "onboardCharity",
      "outputs": [
        {
          "internalType": "address",
          "name": "",
          "type": "address"
        }
      ],
      "payable": false,
      "stateMutability": "nonpayable",
      "type": "function"
    },
    {
      "constant": true,
      "inputs": [
        {
          "internalType": "string",
          "name": "UEN",
          "type": "string"
        }
      ],
      "name": "getCharityAddress",
      "outputs": [
        {
          "internalType": "address",
          "name": "",
          "type": "address"
        }
      ],
      "payable": false,
      "stateMutability": "view",
      "type": "function"
    }
  ],
  "bytecode": "0x608060405234801561001057600080fd5b506040516112ee3803806112ee8339818101604052602081101561003357600080fd5b8101908080519060200190929190505050806000806101000a81548173ffffffffffffffffffffffffffffffffffffffff021916908373ffffffffffffffffffffffffffffffffffffffff1602179055505061125a806100946000396000f3fe608060405234801561001057600080fd5b50600436106100365760003560e01c8063411fccf51461003b57806351575c6214610156575b600080fd5b6101146004803603604081101561005157600080fd5b81019080803573ffffffffffffffffffffffffffffffffffffffff1690602001909291908035906020019064010000000081111561008e57600080fd5b8201836020820111156100a057600080fd5b803590602001918460018302840111640100000000831117156100c257600080fd5b91908080601f016020809104026020016040519081016040528093929190818152602001838380828437600081840152601f19601f820116905080830192505050505050509192919290505050610251565b604051808273ffffffffffffffffffffffffffffffffffffffff1673ffffffffffffffffffffffffffffffffffffffff16815260200191505060405180910390f35b61020f6004803603602081101561016c57600080fd5b810190808035906020019064010000000081111561018957600080fd5b82018360208201111561019b57600080fd5b803590602001918460018302840111640100000000831117156101bd57600080fd5b91908080601f016020809104026020016040519081016040528093929190818152602001838380828437600081840152601f19601f82011690508083019250505050505050919291929050505061047b565b604051808273ffffffffffffffffffffffffffffffffffffffff1673ffffffffffffffffffffffffffffffffffffffff16815260200191505060405180910390f35b60008060009054906101000a900473ffffffffffffffffffffffffffffffffffffffff1673ffffffffffffffffffffffffffffffffffffffff163373ffffffffffffffffffffffffffffffffffffffff16146102f8576040517f08c379a00000000000000000000000000000000000000000000000000000000081526004018080602001828103825260238152602001806112036023913960400191505060405180910390fd5b600083836040516103089061050e565b808373ffffffffffffffffffffffffffffffffffffffff1673ffffffffffffffffffffffffffffffffffffffff16815260200180602001828103825283818151815260200191508051906020019080838360005b8381101561037757808201518184015260208101905061035c565b50505050905090810190601f1680156103a45780820380516001836020036101000a031916815260200191505b509350505050604051809103906000f0801580156103c6573d6000803e3d6000fd5b509050806001846040518082805190602001908083835b6020831061040057805182526020820191506020810190506020830392506103dd565b6001836020036101000a038019825116818451168082178552505050505050905001915050908152602001604051809103902060006101000a81548173ffffffffffffffffffffffffffffffffffffffff021916908373ffffffffffffffffffffffffffffffffffffffff1602179055508091505092915050565b60006001826040518082805190602001908083835b602083106104b35780518252602082019150602081019050602083039250610490565b6001836020036101000a038019825116818451168082178552505050505050905001915050908152602001604051809103902060009054906101000a900473ffffffffffffffffffffffffffffffffffffffff169050919050565b610ce78061051c8339019056fe608060405234801561001057600080fd5b50604051610ce7380380610ce78339818101604052604081101561003357600080fd5b81019080805190602001909291908051604051939291908464010000000082111561005d57600080fd5b8382019150602082018581111561007357600080fd5b825186600182028301116401000000008211171561009057600080fd5b8083526020830192505050908051906020019080838360005b838110156100c45780820151818401526020810190506100a9565b50505050905090810190601f1680156100f15780820380516001836020036101000a031916815260200191505b50604052505050816000806101000a81548173ffffffffffffffffffffffffffffffffffffffff021916908373ffffffffffffffffffffffffffffffffffffffff160217905550806001908051906020019061014e9291906101ae565b506001600260008473ffffffffffffffffffffffffffffffffffffffff1673ffffffffffffffffffffffffffffffffffffffff16815260200190815260200160002060006101000a81548160ff0219169083151502179055505050610253565b828054600181600116156101000203166002900490600052602060002090601f016020900481019282601f106101ef57805160ff191683800117855561021d565b8280016001018555821561021d579182015b8281111561021c578251825591602001919060010190610201565b5b50905061022a919061022e565b5090565b61025091905b8082111561024c576000816000905550600101610234565b5090565b90565b610a85806102626000396000f3fe608060405234801561001057600080fd5b506004361061007d5760003560e01c80637065cb481161005b5780637065cb4814610222578063c1c40ec414610266578063e0e3671c14610325578063ee535946146103815761007d565b8063173825d9146100825780632d7cb52a146100c65780635c4766c714610149575b600080fd5b6100c46004803603602081101561009857600080fd5b81019080803573ffffffffffffffffffffffffffffffffffffffff1690602001909291905050506103c3565b005b6100ce6104c3565b6040518080602001828103825283818151815260200191508051906020019080838360005b8381101561010e5780820151818401526020810190506100f3565b50505050905090810190601f16801561013b5780820380516001836020036101000a031916815260200191505b509250505060405180910390f35b6102206004803603608081101561015f57600080fd5b810190808035906020019092919080359060200190929190803590602001909291908035906020019064010000000081111561019a57600080fd5b8201836020820111156101ac57600080fd5b803590602001918460018302840111640100000000831117156101ce57600080fd5b91908080601f016020809104026020016040519081016040528093929190818152602001838380828437600081840152601f19601f820116905080830192505050505050509192919290505050610561565b005b6102646004803603602081101561023857600080fd5b81019080803573ffffffffffffffffffffffffffffffffffffffff1690602001909291905050506106bc565b005b61029c6004803603604081101561027c57600080fd5b8101908080359060200190929190803590602001909291905050506107bc565b6040518084815260200183815260200180602001828103825283818151815260200191508051906020019080838360005b838110156102e85780820151818401526020810190506102cd565b50505050905090810190601f1680156103155780820380516001836020036101000a031916815260200191505b5094505050505060405180910390f35b6103676004803603602081101561033b57600080fd5b81019080803573ffffffffffffffffffffffffffffffffffffffff1690602001909291905050506108d0565b604051808215151515815260200191505060405180910390f35b6103ad6004803603602081101561039757600080fd5b8101908080359060200190929190505050610926565b6040518082815260200191505060405180910390f35b6000809054906101000a900473ffffffffffffffffffffffffffffffffffffffff1673ffffffffffffffffffffffffffffffffffffffff163373ffffffffffffffffffffffffffffffffffffffff1614610468576040517f08c379a0000000000000000000000000000000000000000000000000000000008152600401808060200182810382526023815260200180610a0a6023913960400191505060405180910390fd5b6000600260008373ffffffffffffffffffffffffffffffffffffffff1673ffffffffffffffffffffffffffffffffffffffff16815260200190815260200160002060006101000a81548160ff02191690831515021790555050565b60018054600181600116156101000203166002900480601f0160208091040260200160405190810160405280929190818152602001828054600181600116156101000203166002900480156105595780601f1061052e57610100808354040283529160200191610559565b820191906000526020600020905b81548152906001019060200180831161053c57829003601f168201915b505050505081565b600260003373ffffffffffffffffffffffffffffffffffffffff1673ffffffffffffffffffffffffffffffffffffffff16815260200190815260200160002060009054906101000a900460ff16610603576040517f08c379a0000000000000000000000000000000000000000000000000000000008152600401808060200182810382526024815260200180610a2d6024913960400191505060405180910390fd5b61060b610943565b60405180606001604052808581526020018481526020018381525090506000600360008781526020019081526020016000205490508160046000888152602001908152602001600020600083815260200190815260200160002060008201518160000155602082015181600101556040820151816002019080519060200190610695929190610964565b50905050600181016003600088815260200190815260200160002081905550505050505050565b6000809054906101000a900473ffffffffffffffffffffffffffffffffffffffff1673ffffffffffffffffffffffffffffffffffffffff163373ffffffffffffffffffffffffffffffffffffffff1614610761576040517f08c379a0000000000000000000000000000000000000000000000000000000008152600401808060200182810382526023815260200180610a0a6023913960400191505060405180910390fd5b6001600260008373ffffffffffffffffffffffffffffffffffffffff1673ffffffffffffffffffffffffffffffffffffffff16815260200190815260200160002060006101000a81548160ff02191690831515021790555050565b60008060606107c9610943565b6004600087815260200190815260200160002060008681526020019081526020016000206040518060600160405290816000820154815260200160018201548152602001600282018054600181600116156101000203166002900480601f0160208091040260200160405190810160405280929190818152602001828054600181600116156101000203166002900480156108a55780601f1061087a576101008083540402835291602001916108a5565b820191906000526020600020905b81548152906001019060200180831161088857829003601f168201915b5050505050815250509050806000015181602001518260400151809050935093509350509250925092565b6000600260008373ffffffffffffffffffffffffffffffffffffffff1673ffffffffffffffffffffffffffffffffffffffff16815260200190815260200160002060009054906101000a900460ff169050919050565b600060036000838152602001908152602001600020549050919050565b60405180606001604052806000815260200160008152602001606081525090565b828054600181600116156101000203166002900490600052602060002090601f016020900481019282601f106109a557805160ff19168380011785556109d3565b828001600101855582156109d3579182015b828111156109d25782518255916020019190600101906109b7565b5b5090506109e091906109e4565b5090565b610a0691905b80821115610a025760008160009055506001016109ea565b5090565b9056fe4f6e6c792061646d696e2063616e2061636365737320746869732066756e6374696f6e4f6e6c79206f776e6572732063616e2061636365737320746869732066756e6374696f6ea265627a7a7231582043cb8a65a9aa0208f8e88291ce7da0860948db06b50119fbd7954ea1421a6a0b64736f6c634300051000324f6e6c792061646d696e2063616e2061636365737320746869732066756e6374696f6ea265627a7a72315820dcfaa513f70a2f272aa0a17db6b8e254f6d96bbf823fb40e0c8cf91d8b57935b64736f6c63430005100032",
  "source": "pragma solidity >=0.5.16 <0.8.0;\r\nimport './CharityChain.sol';\r\n\r\ncontract Onboarding {\r\n  address private admin; // We are the owners\r\n  mapping(string => address) private charities;\r\n\r\n  constructor(address _admin) public {\r\n        admin = _admin;\r\n  }\r\n  \r\n  modifier isAdmin {\r\n    require(msg.sender == admin, 'Only admin can access this function');\r\n    _;\r\n  }\r\n\r\n  function onboardCharity(address charityAdmin, string memory UEN) public isAdmin returns (address) {\r\n    address charityAddress = address(new CharityChain(charityAdmin, UEN));\r\n    charities[UEN] = charityAddress;\r\n    return charityAddress;\r\n  }\r\n\r\n  function getCharityAddress(string memory UEN) public view returns (address) {\r\n    return charities[UEN];\r\n  }\r\n}",
  "sourcePath": "C:/Users/admin/Desktop/Projects/Blockchain_Charity/ethr-contracts/contracts/Onboarding.sol",
  "compiler": {
    "name": "solc",
    "version": "0.5.16+commit.9c3226ce.Emscripten.clang"
  },
  "schemaVersion": "3.3.3",
  "updatedAt": "2020-12-27T13:51:37.284Z",
  "networkType": "ethereum",
  "devdoc": {
    "methods": {}
  },
  "userdoc": {
    "methods": {}
  }
}