{
    "contractName": "CharityChain",
    "abi": [
        {
            "inputs": [
                {
                    "internalType": "address",
                    "name": "_admin",
                    "type": "address"
                },
                {
                    "internalType": "string",
                    "name": "_uen",
                    "type": "string"
                }
            ],
            "stateMutability": "nonpayable",
            "type": "constructor"
        },
        {
            "inputs": [
                {
                    "internalType": "bytes32",
                    "name": "nricHash",
                    "type": "bytes32"
                },
                {
                    "internalType": "uint256",
                    "name": "amount",
                    "type": "uint256"
                },
                {
                    "internalType": "uint256",
                    "name": "date",
                    "type": "uint256"
                },
                {
                    "internalType": "string",
                    "name": "message",
                    "type": "string"
                }
            ],
            "name": "addDonation",
            "outputs": [],
            "stateMutability": "nonpayable",
            "type": "function"
        },
        {
            "inputs": [
                {
                    "internalType": "bytes32",
                    "name": "nricHash",
                    "type": "bytes32"
                },
                {
                    "internalType": "uint256",
                    "name": "index",
                    "type": "uint256"
                }
            ],
            "name": "getDonation",
            "outputs": [
                {
                    "internalType": "uint256",
                    "name": "",
                    "type": "uint256"
                },
                {
                    "internalType": "uint256",
                    "name": "",
                    "type": "uint256"
                },
                {
                    "internalType": "string",
                    "name": "",
                    "type": "string"
                }
            ],
            "stateMutability": "view",
            "type": "function"
        },
        {
            "inputs": [
                {
                    "internalType": "bytes32",
                    "name": "nricHash",
                    "type": "bytes32"
                }
            ],
            "name": "getDonationCount",
            "outputs": [
                {
                    "internalType": "uint256",
                    "name": "",
                    "type": "uint256"
                }
            ],
            "stateMutability": "view",
            "type": "function"
        },
        {
            "inputs": [],
            "name": "uen",
            "outputs": [
                {
                    "internalType": "string",
                    "name": "",
                    "type": "string"
                }
            ],
            "stateMutability": "view",
            "type": "function"
        }
    ],
    "bytecode": "608060405234801561001057600080fd5b506040516107a43803806107a48339818101604052604081101561003357600080fd5b81516020830180516040519294929383019291908464010000000082111561005a57600080fd5b90830190602082018581111561006f57600080fd5b825164010000000081118282018810171561008957600080fd5b82525081516020918201929091019080838360005b838110156100b657818101518382015260200161009e565b50505050905090810190601f1680156100e35780820380516001836020036101000a031916815260200191505b506040525050600080546001600160a01b0319166001600160a01b038516179055508051610118906001906020840190610120565b5050506101c1565b828054600181600116156101000203166002900490600052602060002090601f016020900481019282610156576000855561019c565b82601f1061016f57805160ff191683800117855561019c565b8280016001018555821561019c579182015b8281111561019c578251825591602001919060010190610181565b506101a89291506101ac565b5090565b5b808211156101a857600081556001016101ad565b6105d4806101d06000396000f3fe608060405234801561001057600080fd5b506004361061004c5760003560e01c80632d7cb52a146100515780635c4766c7146100ce578063c1c40ec414610189578063ee53594614610232575b600080fd5b610059610261565b6040805160208082528351818301528351919283929083019185019080838360005b8381101561009357818101518382015260200161007b565b50505050905090810190601f1680156100c05780820380516001836020036101000a031916815260200191505b509250505060405180910390f35b610187600480360360808110156100e457600080fd5b8135916020810135916040820135919081019060808101606082013564010000000081111561011257600080fd5b82018360208201111561012457600080fd5b8035906020019184600183028401116401000000008311171561014657600080fd5b91908080601f0160208091040260200160405190810160405280939291908181526020018383808284376000920191909152509295506102ee945050505050565b005b6101ac6004803603604081101561019f57600080fd5b50803590602001356103bb565b6040518084815260200183815260200180602001828103825283818151815260200191508051906020019080838360005b838110156101f55781810151838201526020016101dd565b50505050905090810190601f1680156102225780820380516001836020036101000a031916815260200191505b5094505050505060405180910390f35b61024f6004803603602081101561024857600080fd5b50356104a7565b60408051918252519081900360200190f35b60018054604080516020600284861615610100026000190190941693909304601f810184900484028201840190925281815292918301828280156102e65780601f106102bb576101008083540402835291602001916102e6565b820191906000526020600020905b8154815290600101906020018083116102c957829003601f168201915b505050505081565b6000546001600160a01b031633146103375760405162461bcd60e51b815260040180806020018281038252602381526020018061057c6023913960400191505060405180910390fd5b61033f6104b9565b50604080516060810182528481526020808201858152828401858152600089815260028085528682205460038652878320818452865296909120855181559251600184015590518051949594869461039b9385019201906104da565b505050600095865260026020526040909520600190950190945550505050565b60008060606103c86104b9565b6000868152600360209081526040808320888452825291829020825160608101845281548152600180830154828501526002808401805487519381161561010002600019011691909104601f810186900486028301860187528083529295939493860193919290918301828280156104815780601f1061045657610100808354040283529160200191610481565b820191906000526020600020905b81548152906001019060200180831161046457829003601f168201915b505050919092525050815160208301516040909301519099929850965090945050505050565b60009081526002602052604090205490565b60405180606001604052806000815260200160008152602001606081525090565b828054600181600116156101000203166002900490600052602060002090601f0160209004810192826105105760008555610556565b82601f1061052957805160ff1916838001178555610556565b82800160010185558215610556579182015b8281111561055657825182559160200191906001019061053b565b50610562929150610566565b5090565b5b80821115610562576000815560010161056756fe4f6e6c792061646d696e2063616e2061636365737320746869732066756e6374696f6ea26469706673582212207ce873a331127895c1f6654dcef41ecc232c28d41552598884e2575345af7eb164736f6c63430007040033",
    "sourcePath": "c:/Users/admin/Desktop/Projects/Blockchain_Charity/smart-contracts/contracts/CharityChain.sol",
    "compiler": {
        "name": "solc",
        "version": "0.7.4+commit.3f05b770"
    },
    "functionHashes": {
        "addDonation(bytes32,uint256,uint256,string)": "5c4766c7",
        "getDonation(bytes32,uint256)": "c1c40ec4",
        "getDonationCount(bytes32)": "ee535946",
        "uen()": "2d7cb52a"
    },
    "gasEstimates": {
        "creation": {
            "codeDepositCost": "298400",
            "executionCost": "infinite",
            "totalCost": "infinite"
        },
        "external": {
            "addDonation(bytes32,uint256,uint256,string)": "infinite",
            "getDonation(bytes32,uint256)": "infinite",
            "getDonationCount(bytes32)": "1150",
            "uen()": "infinite"
        }
    }
}