{
  "contractName": "Onboarding",
  "abi": [
    {
      "inputs": [
        {
          "internalType": "address",
          "name": "_admin",
          "type": "address"
        }
      ],
      "payable": false,
      "stateMutability": "nonpayable",
      "type": "constructor"
    },
    {
      "constant": false,
      "inputs": [
        {
          "internalType": "address",
          "name": "charityAdmin",
          "type": "address"
        },
        {
          "internalType": "string",
          "name": "UEN",
          "type": "string"
        }
      ],
      "name": "onboardCharity",
      "outputs": [
        {
          "internalType": "address",
          "name": "",
          "type": "address"
        }
      ],
      "payable": false,
      "stateMutability": "nonpayable",
      "type": "function"
    },
    {
      "constant": true,
      "inputs": [
        {
          "internalType": "string",
          "name": "UEN",
          "type": "string"
        }
      ],
      "name": "getCharityAddress",
      "outputs": [
        {
          "internalType": "address",
          "name": "",
          "type": "address"
        }
      ],
      "payable": false,
      "stateMutability": "view",
      "type": "function"
    }
  ],
  "bytecode": "0x608060405234801561001057600080fd5b50604051610f0a380380610f0a8339818101604052602081101561003357600080fd5b8101908080519060200190929190505050806000806101000a81548173ffffffffffffffffffffffffffffffffffffffff021916908373ffffffffffffffffffffffffffffffffffffffff16021790555050610e76806100946000396000f3fe608060405234801561001057600080fd5b50600436106100365760003560e01c8063411fccf51461003b57806351575c6214610156575b600080fd5b6101146004803603604081101561005157600080fd5b81019080803573ffffffffffffffffffffffffffffffffffffffff1690602001909291908035906020019064010000000081111561008e57600080fd5b8201836020820111156100a057600080fd5b803590602001918460018302840111640100000000831117156100c257600080fd5b91908080601f016020809104026020016040519081016040528093929190818152602001838380828437600081840152601f19601f820116905080830192505050505050509192919290505050610251565b604051808273ffffffffffffffffffffffffffffffffffffffff1673ffffffffffffffffffffffffffffffffffffffff16815260200191505060405180910390f35b61020f6004803603602081101561016c57600080fd5b810190808035906020019064010000000081111561018957600080fd5b82018360208201111561019b57600080fd5b803590602001918460018302840111640100000000831117156101bd57600080fd5b91908080601f016020809104026020016040519081016040528093929190818152602001838380828437600081840152601f19601f82011690508083019250505050505050919291929050505061047b565b604051808273ffffffffffffffffffffffffffffffffffffffff1673ffffffffffffffffffffffffffffffffffffffff16815260200191505060405180910390f35b60008060009054906101000a900473ffffffffffffffffffffffffffffffffffffffff1673ffffffffffffffffffffffffffffffffffffffff163373ffffffffffffffffffffffffffffffffffffffff16146102f8576040517f08c379a0000000000000000000000000000000000000000000000000000000008152600401808060200182810382526023815260200180610e1f6023913960400191505060405180910390fd5b600083836040516103089061050e565b808373ffffffffffffffffffffffffffffffffffffffff1673ffffffffffffffffffffffffffffffffffffffff16815260200180602001828103825283818151815260200191508051906020019080838360005b8381101561037757808201518184015260208101905061035c565b50505050905090810190601f1680156103a45780820380516001836020036101000a031916815260200191505b509350505050604051809103906000f0801580156103c6573d6000803e3d6000fd5b509050806001846040518082805190602001908083835b6020831061040057805182526020820191506020810190506020830392506103dd565b6001836020036101000a038019825116818451168082178552505050505050905001915050908152602001604051809103902060006101000a81548173ffffffffffffffffffffffffffffffffffffffff021916908373ffffffffffffffffffffffffffffffffffffffff1602179055508091505092915050565b60006001826040518082805190602001908083835b602083106104b35780518252602082019150602081019050602083039250610490565b6001836020036101000a038019825116818451168082178552505050505050905001915050908152602001604051809103902060009054906101000a900473ffffffffffffffffffffffffffffffffffffffff169050919050565b6109038061051c8339019056fe608060405234801561001057600080fd5b506040516109033803806109038339818101604052604081101561003357600080fd5b81019080805190602001909291908051604051939291908464010000000082111561005d57600080fd5b8382019150602082018581111561007357600080fd5b825186600182028301116401000000008211171561009057600080fd5b8083526020830192505050908051906020019080838360005b838110156100c45780820151818401526020810190506100a9565b50505050905090810190601f1680156100f15780820380516001836020036101000a031916815260200191505b50604052505050816000806101000a81548173ffffffffffffffffffffffffffffffffffffffff021916908373ffffffffffffffffffffffffffffffffffffffff160217905550806001908051906020019061014e929190610156565b5050506101fb565b828054600181600116156101000203166002900490600052602060002090601f016020900481019282601f1061019757805160ff19168380011785556101c5565b828001600101855582156101c5579182015b828111156101c45782518255916020019190600101906101a9565b5b5090506101d291906101d6565b5090565b6101f891905b808211156101f45760008160009055506001016101dc565b5090565b90565b6106f98061020a6000396000f3fe608060405234801561001057600080fd5b506004361061004c5760003560e01c80632d7cb52a146100515780635c4766c7146100d4578063c1c40ec4146101ad578063ee5359461461026c575b600080fd5b6100596102ae565b6040518080602001828103825283818151815260200191508051906020019080838360005b8381101561009957808201518184015260208101905061007e565b50505050905090810190601f1680156100c65780820380516001836020036101000a031916815260200191505b509250505060405180910390f35b6101ab600480360360808110156100ea57600080fd5b810190808035906020019092919080359060200190929190803590602001909291908035906020019064010000000081111561012557600080fd5b82018360208201111561013757600080fd5b8035906020019184600183028401116401000000008311171561015957600080fd5b91908080601f016020809104026020016040519081016040528093929190818152602001838380828437600081840152601f19601f82011690508083019250505050505050919291929050505061034c565b005b6101e3600480360360408110156101c357600080fd5b8101908080359060200190929190803590602001909291905050506104aa565b6040518084815260200183815260200180602001828103825283818151815260200191508051906020019080838360005b8381101561022f578082015181840152602081019050610214565b50505050905090810190601f16801561025c5780820380516001836020036101000a031916815260200191505b5094505050505060405180910390f35b6102986004803603602081101561028257600080fd5b81019080803590602001909291905050506105be565b6040518082815260200191505060405180910390f35b60018054600181600116156101000203166002900480601f0160208091040260200160405190810160405280929190818152602001828054600181600116156101000203166002900480156103445780601f1061031957610100808354040283529160200191610344565b820191906000526020600020905b81548152906001019060200180831161032757829003601f168201915b505050505081565b6000809054906101000a900473ffffffffffffffffffffffffffffffffffffffff1673ffffffffffffffffffffffffffffffffffffffff163373ffffffffffffffffffffffffffffffffffffffff16146103f1576040517f08c379a00000000000000000000000000000000000000000000000000000000081526004018080602001828103825260238152602001806106a26023913960400191505060405180910390fd5b6103f96105db565b604051806060016040528085815260200184815260200183815250905060006002600087815260200190815260200160002054905081600360008881526020019081526020016000206000838152602001908152602001600020600082015181600001556020820151816001015560408201518160020190805190602001906104839291906105fc565b50905050600181016002600088815260200190815260200160002081905550505050505050565b60008060606104b76105db565b6003600087815260200190815260200160002060008681526020019081526020016000206040518060600160405290816000820154815260200160018201548152602001600282018054600181600116156101000203166002900480601f0160208091040260200160405190810160405280929190818152602001828054600181600116156101000203166002900480156105935780601f1061056857610100808354040283529160200191610593565b820191906000526020600020905b81548152906001019060200180831161057657829003601f168201915b5050505050815250509050806000015181602001518260400151809050935093509350509250925092565b600060026000838152602001908152602001600020549050919050565b60405180606001604052806000815260200160008152602001606081525090565b828054600181600116156101000203166002900490600052602060002090601f016020900481019282601f1061063d57805160ff191683800117855561066b565b8280016001018555821561066b579182015b8281111561066a57825182559160200191906001019061064f565b5b509050610678919061067c565b5090565b61069e91905b8082111561069a576000816000905550600101610682565b5090565b9056fe4f6e6c792061646d696e2063616e2061636365737320746869732066756e6374696f6ea265627a7a72315820f30bb9b98dac9bbb4f3e9faa2962adf9d5d861a10a4bb26536d8df7ef5a2c90a64736f6c634300051000324f6e6c792061646d696e2063616e2061636365737320746869732066756e6374696f6ea265627a7a7231582069be7077bba32af2a83ac0448bb44169c688c39a35e05c69be860bd2749e91cf64736f6c63430005100032",
  "source": "pragma solidity >=0.5.16 <0.8.0;\r\nimport './CharityChain.sol';\r\n\r\ncontract Onboarding {\r\n  address private admin; // We are the owners\r\n  mapping(string => address) private charities;\r\n\r\n  constructor(address _admin) public {\r\n        admin = _admin;\r\n  }\r\n  \r\n  modifier isAdmin {\r\n    require(msg.sender == admin, 'Only admin can access this function');\r\n    _;\r\n  }\r\n\r\n  function onboardCharity(address charityAdmin, string memory UEN) public isAdmin returns (address) {\r\n    address charityAddress = address(new CharityChain(charityAdmin, UEN));\r\n    charities[UEN] = charityAddress;\r\n    return charityAddress;\r\n  }\r\n\r\n  function getCharityAddress(string memory UEN) public view returns (address) {\r\n    return charities[UEN];\r\n  }\r\n}",
  "sourcePath": "C:/Users/admin/Desktop/Projects/Blockchain_Charity/smart-contracts/contracts/Onboarding.sol",
  "compiler": {
    "name": "solc",
    "version": "0.5.16+commit.9c3226ce.Emscripten.clang"
  },
  "schemaVersion": "3.3.3",
  "updatedAt": "2020-12-27T08:32:23.449Z",
  "networkType": "ethereum",
  "devdoc": {
    "methods": {}
  },
  "userdoc": {
    "methods": {}
  }
}